{
  "_format": "hh-sol-artifact-1",
  "contractName": "Square",
  "sourceName": "contracts/Square.sol",
  "abi": [
    {
      "anonymous": false,
      "inputs": [
        {
          "indexed": false,
          "internalType": "uint256",
          "name": "value",
          "type": "uint256"
        }
      ],
      "name": "ValueChanged",
      "type": "event"
    },
    {
      "inputs": [],
      "name": "retrieveArea",
      "outputs": [
        {
          "internalType": "uint256",
          "name": "",
          "type": "uint256"
        }
      ],
      "stateMutability": "view",
      "type": "function"
    },
    {
      "inputs": [
        {
          "internalType": "uint256",
          "name": "side",
          "type": "uint256"
        }
      ],
      "name": "storeSide",
      "outputs": [],
      "stateMutability": "nonpayable",
      "type": "function"
    }
  ],
  "bytecode": "0x608060405234801561001057600080fd5b5061021a806100206000396000f3fe608060405234801561001057600080fd5b50600436106100365760003560e01c806317f316731461003b578063fc2a3d0814610057575b600080fd5b610055600480360381019061005091906100e7565b610075565b005b61005f6100b6565b60405161006c919061011f565b60405180910390f35b806000819055507f93fe6d397c74fdf1402a8b72e47b68512f0510d7b98a4bc4cbdf6ac7108b3c59816040516100ab919061011f565b60405180910390a150565b6000806000546000546100c9919061013a565b90508091505090565b6000813590506100e1816101cd565b92915050565b6000602082840312156100f957600080fd5b6000610107848285016100d2565b91505092915050565b61011981610194565b82525050565b60006020820190506101346000830184610110565b92915050565b600061014582610194565b915061015083610194565b9250817fffffffffffffffffffffffffffffffffffffffffffffffffffffffffffffffff04831182151516156101895761018861019e565b5b828202905092915050565b6000819050919050565b7f4e487b7100000000000000000000000000000000000000000000000000000000600052601160045260246000fd5b6101d681610194565b81146101e157600080fd5b5056fea2646970667358221220634dbfe466ab1d7aa962ebd91d9a6013f6cae819510f69f7bdf2159da36805cc64736f6c63430008040033",
  "linkReferences": {},
  "deployedLinkReferences": {}
}